:100000000C94C3000C94EB000C94EB000C94EB00EC
:100010000C94EB000C94EB000C94EB000C94EB00B4
:100020000C94EB000C94EB000C94EB000C940A067F
:100030000C9410080C94EB000C94EB000C94EB0067
:100040000C94DB0D0C94EB000C946F0F0C94EB00F4
:100050000C94EB000C94EB000C94EB000C94EB0074
:100060000C94EB000C94EB00486967682072617493
:100070006520667261676D656E7465642066696C83
:1000800065210053616D706C652072617465207428
:100090006F6F206869676821004D6F726520746812
:1000A000616E20313620626974732070657220732E
:1000B000616D706C6521004E6F74206D6F6E6F2FD7
:1000C00073746572656F2100436F6D707265737331
:1000D000696F6E206E6F7420737570706F727465C7
:1000E00064004E6F7420612076616C696420574112
:1000F0005600436F756C646E2774206F70656E20B8
:1001000066696C6520002C20000D0A534420492F9D
:100110004F206572726F723A20004572726F723AA8
:100120002000502E574156000000000024002700F8
:100130002A0000000000250028002B00000000001D
:100140002300260029000404040404040404020219
:100150000202020203030303030301020408102046
:100160004080010204081020010204081020000051
:100170000007000201000003040600000000000068
:1001800000005009B81011241FBECFEFD8E0DEBF29
:10019000CDBF16E0A0E0B1E0ECE3F6E202C00590CE
:1001A0000D92A632B107D9F71BE0A6E2B6E001C076
:1001B0001D92AB34B107E1F711E0C6E8D1E004C00D
:1001C0002297FE010E941813C238D107C9F70E9476
:1001D000D40D0C941C130C940000FB01DC018D91D8
:1001E00081341CF08B350CF4805E619161341CF01D
:1001F0006B350CF4605E861B611189F3990B0895D1
:10020000FB01DC014150504030F08D91019080198C
:1002100019F40020B9F7881B990B0895CF93DF9349
:10022000EB01DC0190E020E03EE28C91803269F04D
:10023000283029F4FE01E90FF11D30839F5FFE0194
:10024000E90FF11D8C9180839F5F2F5F11962B30FA
:1002500061F7C90FD11D1882DF91CF9108952F92B8
:100260003F924F925F926F927F928F929F92AF9246
:10027000BF92CF92DF92EF92FF920F931F93CF9393
:10028000DF933C011B01DC011996AD90BD90CD9030
:10029000DC901C97F5011FEF412E11E0512E4A20F2
:1002A0005B2060E072E0641975094A016417750704
:1002B00008F44B01D3011196ED90FD900D911C9126
:1002C0001497940140E050E0D801C7018A199B09B6
:1002D000AC09BD0982179307A407B50718F44701B5
:1002E0008E1A9F0AF30180818770B9E0D694C79473
:1002F000B794A794BA95D1F7C189D289823049F4CD
:100300004F89588D698D7A8D4A0D5B1D6C1D7D1D41
:100310002CC0E8806E2D70E080E090E0D30115964F
:100320002D913D914D915C91189722503040404065
:1003300050400E949312AB01BC0189859A85AB8520
:10034000BC85480F591F6A1F7B1FFF240894E108D2
:10035000F1080027F7FC0095102FEA20FB200C2164
:100360001D214E0D5F1D601F711FD3015196ED9130
:10037000FC915297838994899201810174010E94B2
:100380007105882319F42FEF3FEF01C09401C901D3
:10039000DF91CF911F910F91FF90EF90DF90CF9061
:1003A000BF90AF909F908F907F906F905F904F9095
:1003B0003F902F900895EF92FF920F931F93DF933A
:1003C000CF9300D000D000D0CDB7DEB7FC018A01BA
:1003D0009B01423051056105710508F45AC08581C1
:1003E0009681A781B0850296A11DB11D48175907B6
:1003F0006A077B0708F04DC08289803231F5B7E08B
:100400007695679557954795BA95D1F786859785DF
:10041000A089B189480F591F6A1F7B1F9801220FBD
:10042000331F220F331F3170838994898E010D5F32
:100430001F4FE4E0EE2EF12C0E947105882349F154
:100440002B813C814D815E8128C0803111F5452F83
:10045000562F672F772786859785A089B189480F02
:10046000591F6A1F7B1F9801220F331F3170838928
:1004700094898E010F5F1F4FE2E0EE2EF12C0E9457
:100480007105882331F089819A819C0140E050E018
:1004900004C020E030E040E050E0B901CA012696F7
:1004A0000FB6F894DEBF0FBECDBFCF91DF911F9185
:1004B0000F91FF90EF900895AF92BF92CF92DF928D
:1004C000EF92FF920F931F93CF93DF936C01EE2473
:1004D000FF24870110C0F60180815E01880FB82ECD
:1004E000E501C0E0CE01AA2797FDA095BA2FE80E3E
:1004F000F91E0A1F1B1FC6010E94DB01AB01BC01D4
:10050000411551056105710531F7B701C801DF914A
:10051000CF911F910F91FF90EF90DF90CF90BF9000
:10052000AF9008950F931F93CF93DF93EC018B014E
:10053000FA01DB0152968C91803108F446C080812B
:10054000882309F442C0853E09F43FC08489958917
:10055000A0E0B0E0BC0155274427828D938DA0E038
:10056000B0E0482B592B6A2B7B2B4D875E876F871A
:10057000788B838590E088719070009759F481E0C2
:100580008883848D958DA68DB78D89839A83AB835F
:10059000BC830BC04097C9F484E08883C8010E94E3
:1005A0005C0269837A838B839C831A8B098B8D858C
:1005B0009E85AF85B8898D839E83AF83B887198662
:1005C0001A861B861C8681E001C080E0DF91CF91F6
:1005D0001F910F910895AF92BF92CF92DF92EF9249
:1005E000FF920F931F93CF93DF93EC017A018B015E
:1005F00020C0D801C7010196A11DB11D860175015A
:10060000A816B906CA06DB06A1F08A89803129F04E
:1006100028EF3FEF4FEF5FE004C028EF3FEF40E0EF
:1006200050E080E0A216B306C406D50678F081E05B
:100630000DC0CE01B801A7010E94DB015B016C0176
:100640006115710581059105A1F680E0DF91CF91DB
:100650001F910F91FF90EF90DF90CF90BF90AF90E0
:100660000895CF93DF93EC018881877091F04D85D9
:100670005E856F857889411551056105710549F0E1
:1006800089899A890E94EB02882319F08881886001
:100690008883DF91CF9108955F926F927F928F92BE
:1006A0009F92AF92BF92CF92DF92EF92FF920F9301
:1006B0001F93CF93DF93EC0169847A848B849C84AD
:1006C000460D571D681D791D89819A81AB81BC81BA
:1006D00084179507A607B70708F45BC0E989FA896C
:1006E000E08049875A876B877C875880852D877083
:1006F000823009F450C0FF2400E010E0E9E0769574
:10070000679557954795EA95D1F7CB01BA01A801AE
:1007100097010E94C51259016A0149E09694879495
:10072000779467944A95D1F7C401B301A801970162
:100730000E94C512A21AB30AC40AD50A53FE23C0E6
:100740008D819E81AF81B8858A0D9B1DAC1DBD1D1D
:100750008D839E83AF83B8871EC04D815E816F817C
:10076000788589899A890E94DB016D837E838F83D6
:1007700098870894A108B108C108D10861157105CE
:100780008105910531F0A114B104C104D10429F708
:1007900002C080E001C081E0DF91CF911F910F91F5
:1007A000FF90EF90DF90CF90BF90AF909F908F9091
:1007B0007F906F905F900895AF92BF92CF92DF923B
:1007C000EF92FF920F931F93CF93DF935C016A0127
:1007D0007B0100E010E004C0EC0EFD1E0C0F1D1F9D
:1007E0000C151D05D8F4A601401B510BC501B7011E
:1007F0000E942F01EC01181619061CF097FF0EC07D
:100800000AC0AC01662757FD6095762FC5010E948E
:100810004C03882309F72FEF3FEF01C09801C9016E
:10082000DF91CF911F910F91FF90EF90DF90CF90CC
:10083000BF90AF900895EF92FF920F931F93CF93C5
:10084000DF938C01EB01FC0180818770823010F412
:100850002FEF1EC07B010AC08E3241F08B8590E0E5
:10086000887190700097A1F0409791F0C801B7018E
:1008700040E250E00E94DC03282F803231F488816E
:10088000882329F0853E91F3E7CF18160CF420E079
:10089000822FDF91CF911F910F91FF90EF900895DC
:1008A0008F929F92AF92BF92CF92DF92EF92FF9280
:1008B0000F931F93DF93CF93CDB7DEB7AD970FB6EE
:1008C000F894DEBF0FBECDBF4C018B016A01FB0166
:1008D00085859685A785B08985839683A783B0870C
:1008E0001186128613861486AEE0EA2EF12CEC0EE9
:1008F000FD1E5E010894A11CB11C12C0C701B50108
:100900000E940E01C501B6010E94ED00892B41F441
:10091000F80161897289C401A7010E94920207C08F
:10092000C801B7010E941B04181644F380E0AD967D
:100930000FB6F894DEBF0FBECDBFCF91DF911F91F0
:100940000F91FF90EF90DF90CF90BF90AF909F906E
:100950008F900895FF920F931F93CF93DF93EC0135
:100960000E94230E8B01FF24FA940AC00E94230EDA
:10097000601B710B6D52714018F08DE08C830EC0BE
:10098000FEBC0DB407FEFDCF9EB59F3F79F39E3FA1
:1009900011F481E004C080E18C839D8380E0DF91CD
:1009A000CF911F910F91FF900895FF920F931F9386
:1009B000CF93DF938B010E94230EEB01FF24FA9467
:1009C00009C00E94230E6C1B7D0B0617170710F43D
:1009D00080E008C0FEBC0DB407FEFDCF8EB58F3F92
:1009E00081F781E0DF91CF911F910F91FF900895E2
:1009F000CF93DF93EC018E818823D9F08FEF8EBDEA
:100A00002F8138854FEF04C00DB407FEFDCF4EBDDA
:100A10002F5F3F4FC901019781509240A8F338875B
:100A20002F830DB407FEFDCF8AE061E00E94D30E54
:100A30001E82DF91CF910895BF92CF92DF92EF9205
:100A4000FF920F931F938C01B62E69017A010E94C9
:100A5000F8048AE060E00E94D30EC8016CE271E005
:100A60000E94D5048B2D80648EBD0DB407FEFDCF92
:100A700028E130E0D701C601022E04C0B695A79543
:100A8000979587950A94D2F78EBD0DB407FEFDCFDA
:100A9000285030408FEF283F380761F7BB2011F412
:100AA00085E906C088E0B81611F487E801C08FEF29
:100AB0008EBD0DB407FEFDCF9FEF2FEF2EBD0DB401
:100AC00007FEFDCF8EB587FF04C0992311F091502A
:100AD000F5CF1F910F91FF90EF90DF90CF90BF90D7
:100AE00008958F929F92AF92BF92CF92DF92EF9232
:100AF000FF920F931F93CF93DF93EC015A016B0189
:100B00004901E114F10409F475C0C701820F931F74
:100B10008150924008F070C08E81882371F08881E6
:100B20009981AA81BB81481759076A077B0729F475
:100B30008F8198858816990618F5A882B982CA828D
:100B4000DB828B85833039F089E0AA0CBB1CCC1C7E
:100B5000DD1C8A95D1F7CE0161E1A60195010E94C5
:100B60001C05882319F083E08C8346C0CE010E94C7
:100B7000AA04882309F440C018861F8281E08E836E
:100B80008FEF8EBD8F8198852FEF05C00DB407FEC6
:100B9000FDCF2EBD019688159905C0F398878F83E8
:100BA000D701119720E030E09FEF0BC00DB407FE96
:100BB000FDCF8EB5F801E20FF31F80839EBD2F5F3E
:100BC0003F4F2A173B0790F30DB407FEFDCF8EB5BC
:100BD000A00FB11F8C932F8138852E0D3F1D3887B4
:100BE0002F838985882319F02050324018F0CE01D8
:100BF0000E94F80481E001C080E0DF91CF911F9155
:100C00000F91FF90EF90DF90CF90BF90AF909F90AB
:100C10008F9008951F920F920FB60F9211242F9369
:100C20003F938F939F93AF93BF93EF93FF93E09185
:100C30002606F0912706309709F4CEC020912A0AA3
:100C400030912B0A8091280A9091290A2817390798
:100C500008F44BC08091300A813029F520912C0A8C
:100C600030912D0A30932B0A20932A0A80912E0A64
:100C700090912F0A9093290A8093280A285236408F
:100C800019F488E298E002C088E296E090932D0A79
:100C900080932C0A82E08093300A80916F008460F8
:100CA00080936F0022C0833059F480916F008D7F54
:100CB00080936F00128610922706109226068CC031
:100CC00086819781A085B1850097A105B10509F4BA
:100CD00083C083859485A585B6850196A11DB11D28
:100CE00083879487A587B68777C08581E0912A0A94
:100CF000F0912B0A803149F481818058908132969D
:100D0000F0932B0AE0932A0A06C08191F0932B0AF4
:100D1000E0932A0A90E05A985C985B9A5B985B9AF9
:100D20005B985C9A5B9A5B985B9A5B9887FF02C0C2
:100D30005C9A01C05C985B9A5B9886FF02C05C9AE3
:100D400001C05C985B9A5B9885FF02C05C9A01C009
:100D50005C985B9A5B9884FF02C05C9A01C05C98C7
:100D60005B9A5B9883FF02C05C9A01C05C985B9AB7
:100D70005B9882FF02C05C9A01C05C985B9A5B98AA
:100D800081FF02C05C9A01C05C985B9A5B9880FF0F
:100D900002C05C9A01C05C985B9A5B9897FF02C0A6
:100DA0005C9A01C05C985B9A5B98892F96FF02C0A1
:100DB0005C9A01C05C985B9A5B9885FF02C05C9A64
:100DC00001C05C985B9A5B9884FF02C05C9A01C08A
:100DD0005C985B9A5B985A9AFF91EF91BF91AF91A3
:100DE0009F918F913F912F910F900FBE0F901F9069
:100DF00018950895EFE6F0E080818D7F8083E09183
:100E00002606F091270612861092270610922606D3
:100E10000895AF92BF92CF92DF92EF92FF920F931D
:100E20001F93DF93CF93CDB7DEB728970FB6F89413
:100E3000DEBF0FBECDBF8C016B01B42EA52EFC0111
:100E400086819781A085B1850097A105B10579F5C7
:100E50007E010894E11CF11CD8011F968D919C9194
:100E60005097B70148E050E00E94DC030897E1F496
:100E7000C70160E071E044E050E00E9400014D8154
:100E80005E816F817885009731F4F801468357833E
:100E9000608771870CC0D8011F968D919C915097E7
:100EA0000E944C038823C1F66FEF7FEF40C0F8012A
:100EB00067857089DB0119968D919C911A979170C5
:100EC00040E052E0481B590B2B2D3A2DC901FC0183
:100ED0004817590708F4FA01D80116962D913D914B
:100EE0004D915C911997CF01A0E0B0E02817390728
:100EF0004A075B0708F4F901CB01B601AF010E9474
:100F0000DC03BC011816190694F49C01442737FD34
:100F10004095542FF80186819781A085B185821B69
:100F2000930BA40BB50B86839783A087B187CB0166
:100F300028960FB6F894DEBF0FBECDBFCF91DF91DC
:100F40001F910F91FF90EF90DF90CF90BF90AF90E7
:100F500008950F931F93CF93DF93EC01909327068F
:100F60008093260608E216E0B80140E052E00E94B5
:100F70000907181619060CF04EC010932B0A00939F
:100F80002A0A800F911F9093290A8093280A08E269
:100F900018E0CE01B80140E052E00E94090797FD39
:100FA0003AC010932D0A00932C0A800F911F909342
:100FB0002F0A80932E0A81E08093300A8A87529A02
:100FC000539A549A5A9A559A5D981092800089E0E3
:100FD00080938100688170E080E090E029813A810F
:100FE0004B815C810E9493129B01AC0160E074E232
:100FF00084EF90E00E94C51230938900209388000E
:1010000081E090E090938B0080938A0080916F0044
:10101000826080936F00DF91CF911F910F910895AF
:101020001F920F920FB60F9211242F933F934F935D
:101030005F936F937F938F939F93AF93BF93EF9340
:10104000FF9380916F008B7F80936F008091300AB7
:10105000823021F5789460912C0A70912D0A80914C
:1010600026069091270640E052E00E940907F89476
:1010700020912C0A30912D0A1816190644F4280FD5
:10108000391F30932F0A20932E0A81E005C0309338
:101090002F0A20932E0A83E08093300AFF91EF916C
:1010A000BF91AF919F918F917F916F915F914F9180
:1010B0003F912F910F900FBE0F901F901895CF92D8
:1010C000DF92EF92FF920F931F93DF93CF93CDB7F1
:1010D000DEB762970FB6F894DEBF0FBECDBF7C01BE
:1010E0006B01CB010E943103C6018E010F5F1F4FC0
:1010F000B8014CE050E00E94DC030C9709F08BC073
:10110000C80165E071E044E050E00E9400010097F2
:1011100009F081C0CE0109966AE071E044E050E038
:101120000E940001009709F076C085C0C8016FE0F9
:1011300071E044E050E00E940001009709F06BC0AC
:1011400083C00231110561F4C601BE016F5F7F4F9C
:10115000A8010E94DC038017910709F05CC002C05F
:101160001A82198289819A81019739F40231110515
:1011700039F489899A89892B19F088EC90E049C063
:101180006B81F7016083633018F087EB90E041C01A
:101190001F85F7011583113118F089E990E039C0F6
:1011A0002D813E814F815885F7012183328343830E
:1011B000548370E080E090E00E9493126534FCEA72
:1011C0007F07F0E08F07F0E09F07A8F4212F30E0C1
:1011D00040E050E00E94931223E096958795779522
:1011E00067952A95D1F7693828E5720721E08207CB
:1011F00020E0920718F083E890E00BC065547C4A29
:101200008040904040F1F601808183FD24C088E653
:1012100090E00E94490980E062960FB6F894DEBF24
:101220000FBECDBFCF91DF911F910F91FF90EF9037
:10123000DF90CF900895C601B80148E050E00E94C9
:10124000DC03089741F772CF0D811E810031110533
:1012500009F077CF79CFF701D08AC7861386148635
:10126000158616861286168217821086118681E0F0
:10127000D3CFCF93DF93EC0105C088E39BE00E94BE
:1012800029112196FE0164916623B9F7DF91CF9170
:1012900008950E94390988E39BE00E94391108955E
:1012A0001092350A1092370A10923A0A10923C0AAC
:1012B00010924F0A10925C0A10926F0A82E89AE02C
:1012C0000E94F9060895CF93DF93EC0180918C0A78
:1012D000882321F082E89AE00E94FA068FE69AE0DD
:1012E0006CE57AE0AE010E945004882351F482EF4D
:1012F00090E00E94390988E39BE0BE010E94311111
:1013000011C082E89AE06FE67AE00E945F088823C5
:1013100029F482EE90E00E94490904C082E89AE034
:101320000E94A907DF91CF9108958091350A882303
:10133000F9F089E091E00E9439094091350A50E0C6
:1013400060E070E088E39BE020E130E00E942A1238
:1013500086E091E00E9439094091360A50E060E051
:1013600070E088E39BE020E130E00E943F12FFCF75
:1013700008950E94630980918C0A8823E1F70E94F6
:1013800095090895AF92BF92CF92DF92EF92FF92AC
:101390000F931F9381E00E94950E9093940A80937F
:1013A000930A62E370E080E090E00E94310E88E3EF
:1013B0009BE064E171E00E9431116091930A7091A9
:1013C000940A88E39BE00E941A1288E39BE062E49F
:1013D00071E00E94311188E39BE068EC70E00E94AC
:1013E0001A128091930A9091940A883C91058CF48A
:1013F00081E161E00E94D30E88E39BE061E671E049
:101400000E94501181E090E09093AA0A8093A90A6B
:1014100008C081E160E00E94D30E1092AA0A1092E7
:10142000A90A80E10E94200FBC019093A20A809338
:10143000A10A6A587E4F88E39BE00E9450112091D8
:101440009F0A3091A00A8091A10A9091A20A2817C0
:10145000390709F401C28091A90A9091AA0A039759
:1014600009F0FAC18091A30A9091A40A892B09F08E
:10147000F3C181E090E09093A40A8093A30A809145
:101480009D0A90919E0A019690939E0A80939D0AD0
:1014900088E39BE06DE871E00E94501188E39BE0D7
:1014A0006CEB71E00E94311140919D0A50919E0AAF
:1014B000662757FD6095762F88E39BE02AE030E0B1
:1014C0000E943F1281E00E94950E9093960A8093AD
:1014D000950A88E39BE067ED71E00E94311181E09D
:1014E0000E94950EBC0188E39BE00E941A12809135
:1014F000A50A9091A60A8130910579F08230910574
:101500001CF4892B39F013C08230910549F0039700
:1015100071F409C086E192E008C080E292E005C063
:101520008AE292E002C084E392E00E94B90960ED91
:1015300077E080E090E00E94310E8091A50A9091C2
:10154000A60A8130910579F0823091051CF4892B2F
:1015500039F013C08230910549F0039771F409C046
:101560008EE392E008C088E492E005C082E592E054
:1015700002C08CE592E00E94B90968E873E180E05E
:1015800090E00E94310E81E00E94950E9093940AA3
:101590008093930A88E39BE066E672E00E94311133
:1015A00081E00E94950EBC0188E39BE00E941A1224
:1015B0008091950A9091960A8D599F4F2091930A98
:1015C0003091940A82179307E4F186E061E00E946B
:1015D000D30E8091A50A9091A60A81309105A9F0B9
:1015E000823091051CF4892B39F02BC08230910593
:1015F000A9F0039731F51BC088E39BE06BE872E02C
:101600000E94501186EA92E01AC088E39BE063EBE7
:1016100072E00E9450118CEC92E011C088E39BE0D4
:1016200069ED72E00E94501182EF92E008C088E3F9
:101630009BE06FEF72E00E94501188E193E00E94FE
:10164000B9094091930A5091940A2091950A3091DA
:10165000960AC9018C599F4F841795070CF041C019
:1016600029533F4F24173507E4F187E061E00E94DA
:10167000D30E8091A50A9091A60A81309105A9F018
:10168000823091051CF4892B39F02BC082309105F2
:10169000A9F0039731F51BC088E39BE065E273E096
:1016A0000E94501180E493E01AC088E39BE069E453
:1016B00073E00E94501182E693E011C088E39BE042
:1016C0006BE673E00E94501187E893E008C088E35E
:1016D0009BE060E973E00E94501189EA93E00E9468
:1016E000B9094091930A5091940A2091950A30913A
:1016F000960AC90188539F4F841795070CF041C083
:10170000255D3E4F24173507E4F188E061E00E9433
:10171000D30E8091A50A9091A60A81309105A9F077
:10172000823091051CF4892B39F02BC08230910551
:10173000A9F0039731F51BC088E39BE062EB73E0EF
:101740000E94501189EC93E01AC088E39BE065ED9C
:1017500073E00E9450118AEE93E011C088E39BE091
:1017600066EF73E00E9450118EE094E008C088E3B9
:101770009BE06AE174E00E9450118FE294E00E94C5
:10178000B9098091950A9091960A845D9E4F2091A7
:10179000930A3091940A82179307E4F589E061E097
:1017A0000E94D30E8091A50A9091A60A81309105DE
:1017B000A9F0823091051CF4892B39F02BC08230BE
:1017C0009105A9F0039731F51BC088E39BE06BE31B
:1017D00074E00E94501181E594E01AC088E39BE018
:1017E0006CE574E00E94501180E794E011C088E33A
:1017F0009BE06BE774E00E94501182E994E008C01E
:1018000088E39BE06DE974E00E94501181EB94E065
:101810000E94B90968E873E180E090E00E94310E0F
:1018200086E060E00E94D30E87E060E00E94D30E65
:1018300088E060E00E94D30E89E060E00E94D30E51
:101840008091A10A9091A20A9093A00A80939F0A86
:101850001092A40A1092A30A84E00E94950E90931D
:101860009A0A8093990A2091970A3091980AAC01BC
:10187000421B530B50939C0A40939B0A57FF08C08E
:1018800088279927841B950B90939C0A80939B0A29
:1018900088E39BE06CEB74E00E94311160919B0A3D
:1018A00070919C0A88E39BE00E941A1268E873E139
:1018B00080E090E00E94310E80919B0A90919C0AFA
:1018C0008C3491050CF49BC08091990A90919A0AEE
:1018D0009093980A8093970A64EF71E080E090E01B
:1018E0000E94310E84E00E94950E00D000D0AA27FD
:1018F00097FDA095BA2F23E030E040E050E0EDB72F
:10190000FEB72183328343835483BC01CD0120E0A1
:1019100030E040E050E0EFEFEE2EE3E0FE2E012D50
:10192000112DAA24BB2465010E944A129B01AC011F
:101930003093A80A2093A70A0F900F900F900F9052
:101940006130710511F1623071051CF4232B49F0EF
:1019500056C06230710561F16330710509F04FC006
:101960003AC08091A50A9091A60A892B09F447C034
:101970001092A60A1092A50A88E39BE06BED74E032
:101980000E94501182EF94E038C08091A50A909196
:10199000A60A0197A1F13093A60A2093A50A88E32D
:1019A0009BE06CEF74E00E94501181E195E025C04E
:1019B0008091A50A9091A60A029709F13093A60A90
:1019C0002093A50A88E39BE06BE175E00E9450112B
:1019D00083E395E012C08091A50A9091A60A03972F
:1019E00071F03093A60A2093A50A88E39BE06DE38B
:1019F00075E00E94501182E595E00E94B9091F919F
:101A00000F91FF90EF90DF90CF90BF90AF9008952F
:101A1000AF92BF92CF92DF92EF92FF920F931F93FC
:101A200088E39BE040E855E260E070E00E94AC0F84
:101A300081E161E00E94B30E86E061E00E94B30E96
:101A400087E061E00E94B30E88E061E00E94B30E7F
:101A500089E061E00E94B30E80E160E00E94B30E75
:101A600080E10E94200F9093A00A80939F0A88E350
:101A70009BE06CE575E00E94501160919F0A7091A7
:101A8000A00A88E39BE00E941A1284E00E94950E4F
:101A90009093980A8093970A88E39BE063E775E048
:101AA0000E9431116091970A7091980A88E39BE037
:101AB0000E941A1200D000D06091970A7091980A83
:101AC000882777FD8095982F23E030E040E050E0B4
:101AD000EDB7FEB7218332834383548320E030E0A7
:101AE00040E050E0E12CF4E0FF2E012D112DAA245E
:101AF000BB2465010E944A127093A80A6093A70A4A
:101B00000F900F900F900F9088E39BE067E875E0CF
:101B10000E9431116091A70A7091A80A88E39BE0A6
:101B20000E941A128091A70A9091A80A813091050B
:101B3000B1F0823091051CF4892B41F02CC0823029
:101B40009105B1F08330910531F51BC01092A60AC2
:101B50001092A50A88E39BE06EE975E01AC09093A5
:101B6000A60A8093A50A88E39BE06EEB75E011C09E
:101B70009093A60A8093A50A88E39BE06CED75E03C
:101B800008C09093A60A8093A50A88E39BE06DEFB6
:101B900075E00E9450111F910F91FF90EF90DF9020
:101BA000CF90BF90AF9008950E945B0E0E94080DE9
:101BB0000E94C209FDCF1F920F920FB60F921124FF
:101BC0002F933F938F939F93AF93BF938091AF0ACF
:101BD0009091B00AA091B10AB091B20A3091B30AC3
:101BE0000196A11DB11D232F2D5F2D3720F02D57FC
:101BF0000196A11DB11D2093B30A8093AF0A909363
:101C0000B00AA093B10AB093B20A8091AB0A909146
:101C1000AC0AA091AD0AB091AE0A0196A11DB11D0A
:101C20008093AB0A9093AC0AA093AD0AB093AE0A2E
:101C3000BF91AF919F918F913F912F910F900FBEC8
:101C40000F901F9018958FB7F8942091AF0A30919C
:101C5000B00A4091B10A5091B20A8FBFB901CA01CE
:101C60000895EF92FF920F931F937B018C018FB722
:101C7000F8944091AF0A5091B00A6091B10A709106
:101C8000B20A8FBF2FB7F8948091AF0A9091B00A33
:101C9000A091B10AB091B20A2FBF841B950BA60B7D
:101CA000B70BE816F9060A071B0760F71F910F919B
:101CB000FF90EF900895789484B5826084BD84B5D8
:101CC000816084BD85B5826085BD85B5816085BD37
:101CD000EEE6F0E0808181608083E1E8F0E08081E1
:101CE00082608083808181608083E0E8F0E0808191
:101CF00081608083E1EBF0E0808184608083E0EBB1
:101D0000F0E0808181608083EAE7F0E08081846098
:101D100080838081826080838081816080838081F4
:101D2000806880831092C10008958F7090911B0687
:101D30009295990F990F907C982B90937C008091AD
:101D40007A00806480937A0080917A0086FDFCCFCF
:101D50002091780040917900942F80E030E0282B8A
:101D6000392BC9010895282F30E0C901865A9E4FAA
:101D7000FC0194912A5B3E4FF9018491882391F0F4
:101D8000E82FF0E0EE0FFF1FE85DFE4FA591B49144
:101D9000662329F48C91909589238C9308958C91D6
:101DA000892B8C930895482F50E0CA0182599E4F89
:101DB000FC012491CA01865A9E4FFC0194914A5B12
:101DC0005E4FFA0134913323D1F1222331F12330D4
:101DD00021F4809180008F7705C0243031F4809108
:101DE00080008F7D8093800018C0213019F484B565
:101DF0008F7704C0223021F484B58F7D84BD0DC05F
:101E0000263021F48091B0008F7705C0273029F467
:101E10008091B0008F7D8093B000E32FF0E0EE0F53
:101E2000FF1FEE5CFE4FA591B491662329F48C91BF
:101E3000909589238C9308958C91892B8C93089588
:101E4000682F70E0CB0182599E4FFC012491CB0199
:101E5000865A9E4FFC0144916A5B7E4FFB01949130
:101E6000992319F420E030E038C0222331F12330E7
:101E700021F4809180008F7705C0243031F4809167
:101E800080008F7D8093800018C0213019F484B5C4
:101E90008F7704C0223021F484B58F7D84BD0DC0BE
:101EA000263021F48091B0008F7705C0273029F4C7
:101EB0008091B0008F7D8093B000892F90E0880FD3
:101EC000991F845C9E4FFC01A591B4918C9120E0F8
:101ED00030E0842311F021E030E0C90108951F9221
:101EE0000F920FB60F9211242F933F934F935F934E
:101EF0006F937F938F939F93AF93BF93EF93FF93D2
:101F00004091C600E091340BF091350BCF01019662
:101F100060E870E00E94B2129C018091360B9091B3
:101F2000370B2817390739F0EC54F54F40833093BD
:101F3000350B2093340BFF91EF91BF91AF919F919F
:101F40008F917F916F915F914F913F912F910F9062
:101F50000FBE0F901F9018955F926F927F928F9295
:101F60009F92AF92BF92CF92DF92EF92FF920F9328
:101F70001F93CF93DF93EC013A014B01413482E48C
:101F800058078FE0680780E078070CF07FC060E8B2
:101F900074E88EE190E0A40193010E94E7122150C1
:101FA000304040405040CA01B90122E030E040E0FA
:101FB00050E00E94E71259016A01A601950120959F
:101FC00030954095509594E0220F331F441F551FC4
:101FD0009A95D1F760E074E284EF90E00E94E712F6
:101FE000CA01B9012FEF30E040E050E00E949312A7
:101FF000A40193010E94E712C90181509F4F181656
:1020000019061CF4522E5A9403C055245394521AA4
:1020100060E079E08DE390E0A40193010E94E71273
:102020002150304040405040CA01B90122E030E028
:1020300040E050E00E94E712209530954095509581
:1020400083E0220F331F441F551F8A95D1F760E0AC
:1020500074E284EF90E00E94E712CA01B9012FEF09
:1020600030E040E050E00E949312A40193010E94EE
:10207000E712C90181509F4F181619061CF4822FD0
:10208000815002C081E0821B851500F5E885F98545
:1020900081E090E00A8802C0880F991F0A94E2F755
:1020A000808360E079E08DE390E0A40193010E94D9
:1020B000E7122150304040405040CA01B90122E0AF
:1020C00030E040E050E00E94E71204C0E885F98566
:1020D00010829501EC81FD813083EE81FF812083A8
:1020E000EA85FB85208141E050E0CA010E8402C0F0
:1020F000880F991F0A94E2F7282B2083EA85FB8535
:102100002081CA010F8402C0880F991F0A94E2F748
:10211000282B2083EA85FB858081088802C0440F34
:10212000551F0A94E2F7842B8083DF91CF911F9192
:102130000F91FF90EF90DF90CF90BF90AF909F9066
:102140008F907F906F905F900895FC01A085B1857E
:1021500021898C9190E0022E02C0959587950A9472
:10216000E2F780FFF6CF0484F585E02D60830895C3
:1021700080E296E09093390B8093380B84EB9AE0E1
:1021800090933B0B80933A0B85EC90E090933D0B42
:1021900080933C0B84EC90E090933F0B80933E0B3C
:1021A00080EC90E09093410B8093400B81EC90E0A9
:1021B0009093430B8093420B86EC90E09093450BF9
:1021C0008093440B84E08093460B83E08093470B1D
:1021D00087E08093480B85E08093490B81E08093F2
:1021E0004A0B08950F931F93CF93DF938C01EB015C
:1021F00009C02196D801ED91FC910190F081E02D6C
:10220000C801099568816623A1F7DF91CF911F91DD
:102210000F910895EF92FF920F931F93CF93DF9347
:102220008C017B01EA010CC0D7016D917D01D801C1
:10223000ED91FC910190F081E02DC8010995219765
:10224000209791F7DF91CF911F910F91FF90EF9021
:102250000895DC01ED91FC910190F081E02D09954C
:102260000895DC01ED91FC910280F381E02D099548
:1022700008950F931F938C01DC01ED91FC91019067
:10228000F081E02D6DE00995D801ED91FC91019070
:10229000F081E02DC8016AE009951F910F91089522
:1022A0000F931F938C010E943111C8010E943911B4
:1022B0001F910F9108952F923F924F925F926F92CC
:1022C0007F928F929F92AF92BF92CF92DF92EF92C6
:1022D000FF920F931F93DF93CF93CDB7DEB7A097F5
:1022E0000FB6F894DEBF0FBECDBF1C016A017B01A3
:1022F000411551056105710549F4DC01ED91FC9131
:102300000190F081E02D60E3099554C08824992460
:102310005401422E55246624772401E010E00C0F6E
:102320001D1F080D191DC701B601A30192010E94CE
:10233000C512F80160830894811C911CA11CB11C7A
:10234000C701B601A30192010E94C512C901DA01B9
:102350006C017D01C114D104E104F104F1F681E0C6
:10236000E82EF12CEC0EFD1EE80CF91C3E01089441
:10237000611C711CD501C4010197A109B1096C014F
:10238000C818D90814C0F601EE0DFF1D60816A302F
:1023900010F4605D01C0695CD101ED91FC91019088
:1023A000F081E02DC10109950894E108F1086E144F
:1023B0007F0449F7A0960FB6F894DEBF0FBECDBFDD
:1023C000CF91DF911F910F91FF90EF90DF90CF9011
:1023D000BF90AF909F908F907F906F905F904F9045
:1023E0003F902F900895EF92FF920F931F93CF93FA
:1023F000DF93EC017A018B0177FF0FC0E881F9814F
:102400000190F081E02D6DE2099510950095F09412
:10241000E094E11CF11C011D111DCE01B801A701C2
:102420002AE00E945B11DF91CF911F910F91FF90E5
:10243000EF9008950F931F938C01AB01662757FD12
:102440006095762F0E94F311C8010E9439111F91E7
:102450000F910895DC012115310541F4ED91FC91B6
:102460000190F081E02D642F099508952A303105FF
:1024700019F40E94F31108950E945B1108950F93BF
:102480001F938C010E942A12C8010E9439111F91CA
:102490000F9108952F923F924F925F926F927F9289
:1024A0008F929F92AF92BF92CF92DF92EF92FF9264
:1024B0000F931F93DF93CF93CDB7DEB73B014C0152
:1024C00019012A016D897E898F89988D6A197B0986
:1024D0008C099D09621A730A840A950AA401930162
:1024E0000E949312E218F30804091509A801970144
:1024F0000E94E7122A0D3B1D4C1D5D1DB901CA014A
:10250000CF91DF911F910F91FF90EF90DF90CF90CF
:10251000BF90AF909F908F907F906F905F904F9003
:102520003F902F900895629FD001739FF001829F8A
:10253000E00DF11D649FE00DF11D929FF00D839F52
:10254000F00D749FF00D659FF00D9927729FB00DEF
:10255000E11DF91F639FB00DE11DF91FBD01CF0102
:102560001124089597FB092E07260AD077FD04D081
:1025700049D006D000201AF4709561957F4F0895D8
:10258000F6F7909581959F4F0895A1E21A2EAA1B08
:10259000BB1BFD010DC0AA1FBB1FEE1FFF1FA21713
:1025A000B307E407F50720F0A21BB30BE40BF50B10
:1025B000661F771F881F991F1A9469F76095709599
:1025C000809590959B01AC01BD01CF01089597FBCB
:1025D000092E05260ED057FD04D0D7DF0AD0001CE7
:1025E00038F450954095309521953F4F4F4F5F4FB0
:1025F0000895F6F790958095709561957F4F8F4F70
:102600009F4F0895AA1BBB1B51E107C0AA1FBB1F08
:10261000A617B70710F0A61BB70B881F991F5A956E
:10262000A9F780959095BC01CD010895EE0FFF1F8D
:0C2630000590F491E02D0994F894FFCF80
:10263C006461746100524946460057415645006634
:10264C006D742000416C636F686F6C2053656E7302
:10265C006F722056616C75652066726F6D204265D5
:10266C0067696E6E696E67206F66204C6F6F703A8B
:10267C002000626173656C696E65202B206261734A
:10268C00656C696E65446966666572656E743D203D
:10269C0000416C636F686F6C2053656E736F7220B2
:1026AC0052656164790043757272656E742053775C
:1026BC00697463682053746174653A2000537769B8
:1026CC0074636820776173206368616E676564204A
:1026DC00616E6420427265617468616C797A6572AE
:1026EC0020737461727465642E2E2E006E756D628B
:1026FC006572206F6620627574746F6E20707573CE
:10270C006865733A202000616C636F686F6C20738E
:10271C00656E736F722076616C7565206265666F8D
:10272C00726520626C6F77696E672C20616C636FC9
:10273C00686F6C2064796E616D696320626173658A
:10274C00696E653A200077616974302E7761760086
:10275C0077616974312E7761760077616974322EF6
:10276C007761760077616974332E77617600626CDD
:10277C006F77302E77617600626C6F77312E7761D0
:10278C007600626C6F77322E77617600626C6F77B1
:10279C00332E77617600616C636F686F6C207365A4
:1027AC006E736F722076616C7565206166746572EC
:1027BC0020626C6F77696E673A20007072696E6385
:1027CC00657373206D6F64652030206E6F20616CB3
:1027DC00636F686F6C006E6F7468696E67302E770C
:1027EC00617600706972617465206D6F646520316B
:1027FC00206E6F20616C636F686F6C006E6F746815
:10280C00696E67312E77617600706972617465202C
:10281C006D6F64652032206E6F20616C636F686F22
:10282C006C006E6F7468696E67322E776176006922
:10283C006E73756C74206D6F64652033206E6F2021
:10284C00616C636F686F6C006E6F7468696E673370
:10285C002E776176007072696E63657373206D6F8D
:10286C006465203020666577206472696E6B730036
:10287C00666577302E7761760070697261746520B9
:10288C006D6F6465203120666577206472696E6BAC
:10289C007300666577312E7761760068616C6C6FBA
:1028AC007765656E206D6F646520322066657720D4
:1028BC006472696E6B7300666577322E7761760091
:1028CC00696E73756C74206D6F646520332066655A
:1028DC0077206472696E6B7300666577332E77614F
:1028EC0076007072696E63657373206D6F6465201A
:1028FC00302062757A7A65640062757A7A65643024
:10290C002E77617600706972617465206D6F6465F5
:10291C0020312062757A7A65640062757A7A656412
:10292C00312E7761760068616C6C6F7765656E200F
:10293C006D6F646520322062757A7A656400627509
:10294C007A7A6564322E77617600696E73756C7471
:10295C00206D6F646520332062757A7A656400623D
:10296C00757A7A6564332E776176007072696E635E
:10297C00657373206D6F64652030206472756E6BA7
:10298C00006472756E6B302E7761760070697261BF
:10299C007465206D6F64652031206472756E6B00F8
:1029AC006472756E6B312E7761760068616C6C6F3A
:1029BC007765656E206D6F64652032206472756E6C
:1029CC006B006472756E6B322E77617600696E7374
:1029DC00756C74206D6F64652033206472756E6B3A
:1029EC00006472756E6B332E776176004162736F83
:1029FC006C75746520706F742076616C75652063DE
:102A0C0068616E67652069733A20007072696E6345
:102A1C00657373206D6F6465206368616E676520F4
:102A2C0030006D6F6465302E77617600706972616D
:102A3C007465206D6F6465206368616E6765203115
:102A4C00006D6F6465312E7761760068616C6C6F18
:102A5C007765656E206D6F6465206368616E676570
:102A6C002032006D6F6465322E77617600696E736B
:102A7C00756C74206D6F6465206368616E6765208A
:102A8C0033006D6F6465332E77617600696E6974FF
:102A9C0069616C207377697463682076616C756505
:102AAC003D2000696E697469616C20706F742076CA
:102ABC00616C75653D2000696E697469616C20708C
:102ACC006F742072616E67652069733A2000696EBD
:102ADC00697469616C206D6F646520736574207412
:102AEC006F20303A207072696E6365737300696E83
:102AFC00697469616C206D6F6465207365742074F2
:102B0C006F20313A2070697261746500696E697466
:102B1C0069616C206D6F64652073657420746F201F
:102B2C00323A2068616C6C6F7765656E00696E690E
:102B3C007469616C206D6F64652073657420746FAB
:102B4C0020333A20696E73756C740001000000002C
:062B5C00A510F2100A11A1
:00000001FF
