:100000000C94D6000C94FE000C94FE000C94FE00A0
:100010000C94FE000C94FE000C94FE000C94FE0068
:100020000C94FE000C94FE000C94FE000C948709C6
:100030000C948A0B0C94FE000C94FE000C94FE00B1
:100040000C9469110C94FE000C94FD120C94FE00AB
:100050000C94FE000C94FE000C94FE000C94FE0028
:100060000C94FE000C94FE0053616D706C65207260
:1000700061746520746F6F206869676821004D6F37
:100080007265207468616E20313620626974732055
:100090007065722073616D706C6521004E6F742005
:1000A0006D6F6E6F2F73746572656F2100436F6D96
:1000B0007072657373696F6E206E6F7420737570E4
:1000C000706F72746564004E6F7420612076616C8D
:1000D00069642057415600436F756C646E27742025
:1000E0006F70656E2066696C6520002C20000D0A1B
:1000F000534420492F4F206572726F723A20004599
:1001000072726F723A2000502E5741560046696C49
:10011000657320666F756E643A00436F756C646E2C
:100120002774206F70656E20646972004E6F2070B6
:100130006172746974696F6E210043617264206931
:100140006E69742E206661696C6564210000000090
:1001500000240027002A0000000000250028002BB2
:100160000000000000230026002900040404040409
:100170000404040202020202020303030303030154
:10018000020408102040800102040810200102042B
:100190000810200000000700020100000304060010
:1001A0000000000000000000BC0C461411241FBE1B
:1001B000CFEFD4E0DEBFCDBF16E0A0E0B1E0E0E7D6
:1001C000FDE202C005900D92A632B107D9F719E001
:1001D000A6E2B6E001C01D92AB34B107E1F711E031
:1001E000CCEAD1E004C02297FE010E94B216C83AC0
:1001F000D107C9F70E9462110C94B6160C94000046
:10020000FB01DC018D9181341CF08B350CF4805E98
:10021000619161341CF06B350CF4605E861B6111DA
:1002200089F3990B0895FB01DC014150504030F0F7
:100230008D910190801919F40020B9F7881B990B52
:100240000895CF93DF93EB01DC0190E020E03EE2E4
:100250008C91803269F0283029F4FE01E90FF11DFC
:1002600030839F5FFE01E90FF11D8C9180839F5FBA
:100270002F5F11962B3061F7C90FD11D1882DF91C6
:10028000CF9108952F923F924F925F926F927F92FB
:100290008F929F92AF92BF92CF92DF92EF92FF9296
:1002A0000F931F93DF93CF93CDB7DEB7A5970FB60C
:1002B000F894DEBF0FBECDBF2C01FC01748B638BA5
:1002C000442321F46624772443013AC0453008F0E2
:1002D00007C1242F30E0A4E0220F331FAA95E1F7D5
:1002E00022553E4FCB0140E050E060E070E04E010F
:1002F0000894811C911C8401F0E1EF2EF12C0E94E6
:100300002008882309F4ECC0898190E08F779070F1
:10031000892B09F0E5C0F40184859585A685B7850C
:1003200084369105A105B10508F4DAC060847184B2
:1003300082849384611471048104910409F4D0C00F
:10034000F20183899489B401A3012BE030E01E01FE
:100350000894211C311C8101E5E2EE2EF12C0E9453
:100360002008882309F4BCC089819A81805092407A
:1003700009F0B6C0F1015581552309F4B1C083815C
:100380009481892B09F4ACC04281442309F4A8C0AC
:10039000242F30E0C901019782239323892B09F090
:1003A0009FC0F20155874083F101238534852115D3
:1003B000310519F040E050E005C0F101218D328D8A
:1003C000438D548DF2012183328343835483F101A1
:1003D000E680F780F201F68AE58AF101A380B48015
:1003E000CC24DD24A60CB71CC81CD91CF201A6869F
:1003F000B786C08AD18AF101658170E080E090E023
:100400000E942D166A0D7B1D8C1D9D1DF201678BB0
:10041000708F818F928F35E0EE0CFF1C3A95E1F7DB
:100420002FEF31E0E20EF31EEF2CFF24E69400E004
:1004300010E06E0D7F1D801F911F6187728783877B
:100440009487F10180859185009721F09C0140E01F
:1004500050E005C0F101258936894789508DF201A8
:10046000238F348F458F568F81859285A385B485E0
:10047000681A790A8A0A9B0A620E731E841E951EE8
:10048000F101228130E040E050E0C401B3010E945C
:100490005F16C901DA01F20185839683A783B087CD
:1004A000853FFFE09F07F0E0AF07F0E0BF0710F4E3
:1004B0008CE006C0855F9F4FA040B04028F480E1EB
:1004C000F201828B81E00DC0F10181A192A1A3A173
:1004D000B4A1F201878B908FA18FB28F80E2F1CF10
:1004E00080E0A5960FB6F894DEBF0FBECDBFCF91CA
:1004F000DF911F910F91FF90EF90DF90CF90BF9011
:10050000AF909F908F907F906F905F904F903F90B3
:100510002F9008952F923F924F925F926F927F9209
:100520008F929F92AF92BF92CF92DF92EF92FF9203
:100530000F931F93CF93DF933C011B01DC011996AE
:10054000AD90BD90CD90DC901C97F5011FEF412E32
:1005500011E0512E4A205B2060E072E064197509B9
:100560004A016417750708F44B01D3011196ED9009
:10057000FD900D911C911497940140E050E0D8013A
:10058000C7018A199B09AC09BD0982179307A40703
:10059000B50718F447018E1A9F0AF301808187700E
:1005A000B9E0D694C794B794A794BA95D1F7C18906
:1005B000D289823049F44F89588D698D7A8D4A0DE0
:1005C0005B1D6C1D7D1D2CC0E8806E2D70E080E0F1
:1005D00090E0D30115962D913D914D915C91189726
:1005E00022503040404050400E942D16AB01BC01CB
:1005F00089859A85AB85BC85480F591F6A1F7B1F6B
:10060000FF240894E108F1080027F7FC0095102F5B
:10061000EA20FB200C211D214E0D5F1D601F711F64
:10062000D3015196ED91FC9152978389948992015F
:10063000810174010E942008882319F42FEF3FEFF5
:1006400001C09401C901DF91CF911F910F91FF90DB
:10065000EF90DF90CF90BF90AF909F908F907F9062
:100660006F905F904F903F902F900895EF92FF9280
:100670000F931F93DF93CF9300D000D000D0CDB75E
:10068000DEB7FC018A019B0142305105610571050D
:1006900008F45AC085819681A781B0850296A11D74
:1006A000B11D481759076A077B0708F04DC08289BA
:1006B000803231F5B7E07695679557954795BA95AD
:1006C000D1F786859785A089B189480F591F6A1F80
:1006D0007B1F9801220F331F220F331F3170838934
:1006E00094898E010D5F1F4FE4E0EE2EF12C0E94E5
:1006F0002008882349F12B813C814D815E8128C0EF
:10070000803111F5452F562F672F772786859785DE
:10071000A089B189480F591F6A1F7B1F9801220FBA
:10072000331F3170838994898E010F5F1F4FE2E080
:10073000EE2EF12C0E942008882331F089819A81C5
:100740009C0140E050E004C020E030E040E050E098
:10075000B901CA0126960FB6F894DEBF0FBECDBF11
:10076000CF91DF911F910F91FF90EF900895AF927D
:10077000BF92CF92DF92EF92FF920F931F93CF938E
:10078000DF936C01EE24FF24870110C0F601808105
:100790005E01880FB82EE501C0E0CE01AA2797FDC3
:1007A000A095BA2FE80EF91E0A1F1B1FC6010E9452
:1007B0003603AB01BC01411551056105710531F7E7
:1007C000B701C801DF91CF911F910F91FF90EF907A
:1007D000DF90CF90BF90AF9008950F931F93CF936A
:1007E000DF93EC018B01FB0182898031B1F482E05F
:1007F00088831D861E861F86188A85899689A0E0B3
:10080000B0E025E0880F991FAA1FBB1F2A95D1F7DA
:1008100089839A83AB83BC8316C0803211F080E059
:1008200021C083E08883FB014789508D618D728DE3
:100830004D875E876F87788BC8010E94B7036983F5
:100840007A838B839C831A8B098B8D859E85AF85DC
:10085000B8898D839E83AF83B88719861A861B86D5
:100860001C8681E0DF91CF911F910F9108950F9326
:100870001F93CF93DF93EC018B01FA01DB015296BA
:100880008C91803108F446C08081882309F442C0ED
:10089000853E09F43FC084899589A0E0B0E0BC01A1
:1008A00055274427828D938DA0E0B0E0482B592B2B
:1008B0006A2B7B2B4D875E876F87788B838590E0D3
:1008C00088719070009759F481E08883848D958DAC
:1008D000A68DB78D89839A83AB83BC830BC0409769
:1008E000C9F484E08883C8010E94B70369837A83CE
:1008F0008B839C831A8B098B8D859E85AF85B889E8
:100900008D839E83AF83B88719861A861B861C86C3
:1009100081E001C080E0DF91CF911F910F91089598
:10092000AF92BF92CF92DF92EF92FF920F931F93FD
:10093000CF93DF93EC017A018B0120C0D801C7016E
:100940000196A11DB11D86017501A816B906CA063A
:10095000DB06A1F08A89803129F028EF3FEF4FEFC5
:100960005FE004C028EF3FEF40E050E080E0A216D7
:10097000B306C406D50678F081E00DC0CE01B801FB
:10098000A7010E9436035B016C01611571058105A9
:100990009105A1F680E0DF91CF911F910F91FF901B
:1009A000EF90DF90CF90BF90AF900895CF93DF93FB
:1009B000EC018881877091F04D855E856F8578891F
:1009C000411551056105710549F089899A890E948F
:1009D0009004882319F0888188608883DF91CF9103
:1009E00008955F926F927F928F929F92AF92BF9283
:1009F000CF92DF92EF92FF920F931F93CF93DF93EB
:100A0000EC0169847A848B849C84460D571D681D93
:100A1000791D89819A81AB81BC8184179507A607CE
:100A2000B70708F45BC0E989FA89E08049875A87EB
:100A30006B877C875880852D8770823009F450C081
:100A4000FF2400E010E0E9E076956795579547951B
:100A5000EA95D1F7CB01BA01A80197010E945F1670
:100A600059016A0149E096948794779467944A956E
:100A7000D1F7C401B301A80197010E945F16A21A21
:100A8000B30AC40AD50A53FE23C08D819E81AF816B
:100A9000B8858A0D9B1DAC1DBD1D8D839E83AF83C4
:100AA000B8871EC04D815E816F81788589899A895A
:100AB0000E9436036D837E838F8398870894A108F4
:100AC000B108C108D108611571058105910531F0A2
:100AD000A114B104C104D10429F702C080E001C00F
:100AE00081E0DF91CF911F910F91FF90EF90DF9008
:100AF000CF90BF90AF909F908F907F906F905F90BE
:100B00000895AF92BF92CF92DF92EF92FF920F9330
:100B10001F93CF93DF935C016A017B0100E010E03B
:100B200004C0EC0EFD1E0C0F1D1F0C151D05D8F486
:100B3000A601401B510BC501B7010E948A02EC01BE
:100B4000181619061CF097FF0EC00AC0AC016627E4
:100B500057FD6095762FC5010E94F104882309F79F
:100B60002FEF3FEF01C09801C901DF91CF911F9195
:100B70000F91FF90EF90DF90CF90BF90AF900895CE
:100B8000EF92FF920F931F93CF93DF938C01EB01B2
:100B9000FC0180818770823010F42FEF1EC07B0132
:100BA0000AC08E3241F08B8590E08871907000977A
:100BB000A1F0409791F0C801B70140E250E00E94D7
:100BC0008105282F803231F48881882329F0853EE1
:100BD00091F3E7CF18160CF420E0822FDF91CF912C
:100BE0001F910F91FF90EF9008958F929F92AF9277
:100BF000BF92CF92DF92EF92FF920F931F93DF93FA
:100C0000CF93CDB7DEB7AD970FB6F894DEBF0FBE6A
:100C1000CDBF4C018B016A01FB0185859685A785B7
:100C2000B08985839683A783B08711861286138641
:100C30001486AEE0EA2EF12CEC0EFD1E5E01089447
:100C4000A11CB11C12C0C701B5010E942101C50140
:100C5000B6010E940001892B41F4F8016189728973
:100C6000C401A7010E94370407C0C801B7010E9450
:100C7000C005181644F380E0AD960FB6F894DEBFB9
:100C80000FBECDBFCF91DF911F910F91FF90EF90DD
:100C9000DF90CF90BF90AF909F908F900895EF928C
:100CA000FF921F93CF93DF937C01EC0110E08881CA
:100CB000803261F0183029F488E399E06EE20E94F6
:100CC000BF1488E399E068810E94B7141F5F2196E2
:100CD0001B3069F7F70183858871803129F488E337
:100CE00099E06FE20E94E614DF91CF911F91FF908F
:100CF000EF9008952F923F924F925F926F927F9262
:100D00008F929F92AF92BF92CF92DF92EF92FF921B
:100D10000F931F93DF93CF93CDB7DEB763970FB6D3
:100D2000F894DEBF0FBECDBF6C017B01342E022FC5
:100D3000842F90E041E0642E712C6822792232E009
:100D4000832E912C8822992224E0A22EB12CA82255
:100D5000B9222E010894411C511C82E0282E200E3D
:100D600067C088E399E060E20E94BF141F5F10171C
:100D7000C1F7C7010E944F06F70183858871803152
:100D8000B1F4A114B10409F453C01982F6016189C8
:100D90007289C201A7010E943704882309F448C060
:100DA000C201B701432D222D0E947A0641C0611471
:100DB000710449F1F70184899589A0E0B0E0BC0194
:100DC00055274427828D938DA0E0B0E0482B592B06
:100DD0006A2B7B2B411551056105710549F0F60120
:100DE000818992890E949004882311F41AE201C03B
:100DF00010E288E399E060E20E94BF1488E399E082
:100E0000612F0E94BF148114910471F088E399E06E
:100E100060E20E94BF14F701448D558D668D778D79
:100E200088E399E00E94991588E399E00E94CF1425
:100E3000C601B7010E94C005181614F410E097CF40
:100E400063960FB6F894DEBF0FBECDBFCF91DF9192
:100E50001F910F91FF90EF90DF90CF90BF90AF90D8
:100E60009F908F907F906F905F904F903F902F90CA
:100E70000895DF93CF93CDB7DEB7A0970FB6F89460
:100E8000DEBF0FBECDBFFC01462F80818770823050
:100E900038F0CF01BE016F5F7F4F20E00E947A06DD
:100EA000A0960FB6F894DEBF0FBECDBFCF91DF91F5
:100EB0000895FF920F931F93CF93DF93EC010E944D
:100EC000B1118B01FF24FA940AC00E94B111601B7A
:100ED000710B6D52714018F08DE08C830EC0FEBC1A
:100EE0000DB407FEFDCF9EB59F3F79F39E3F11F4F1
:100EF00081E004C080E18C839D8380E0DF91CF910D
:100F00001F910F91FF900895FF920F931F93CF931E
:100F1000DF938B010E94B111EB01FF24FA9409C009
:100F20000E94B1116C1B7D0B0617170710F480E0AF
:100F300008C0FEBC0DB407FEFDCF8EB58F3F81F714
:100F400081E0DF91CF911F910F91FF900895CF9392
:100F5000DF93EC018E818823D9F08FEF8EBD2F8136
:100F600038854FEF04C00DB407FEFDCF4EBD2F5F97
:100F70003F4FC901019781509240A8F338872F83D2
:100F80000DB407FEFDCF8AE061E00E9461121E826F
:100F9000DF91CF910895BF92CF92DF92EF92FF92AF
:100FA0000F931F938C01B62E69017A010E94A70747
:100FB0008AE060E00E946112C8016CE271E00E9468
:100FC00084078B2D80648EBD0DB407FEFDCF28E114
:100FD00030E0D701C601022E04C0B695A7959795BB
:100FE00087950A94D2F78EBD0DB407FEFDCF285029
:100FF00030408FEF283F380761F7BB2011F485E9B7
:1010000006C088E0B81611F487E801C08FEF8EBDE6
:101010000DB407FEFDCF9FEF2FEF2EBD0DB407FEE1
:10102000FDCF8EB587FF04C0992311F09150F5CF05
:101030001F910F91FF90EF90DF90CF90BF90089598
:101040008F929F92AF92BF92CF92DF92EF92FF92D8
:101050000F931F93CF93DF93EC015A016B0149016A
:10106000E114F10409F475C0C701820F931F815088
:10107000924008F070C08E81882371F08881998138
:10108000AA81BB81481759076A077B0729F48F811A
:1010900098858816990618F5A882B982CA82DB82DB
:1010A0008B85833039F089E0AA0CBB1CCC1CDD1C7D
:1010B0008A95D1F7CE0161E1A60195010E94CB0787
:1010C000882319F083E08C8346C0CE010E94590723
:1010D000882309F440C018861F8281E08E838FEF39
:1010E0008EBD8F8198852FEF05C00DB407FEFDCF13
:1010F0002EBD019688159905C0F398878F83D70177
:10110000119720E030E09FEF0BC00DB407FEFDCF3C
:101110008EB5F801E20FF31F80839EBD2F5F3F4F16
:101120002A173B0790F30DB407FEFDCF8EB5A00F35
:10113000B11F8C932F8138852E0D3F1D38872F834B
:101140008985882319F02050324018F0CE010E9482
:10115000A70781E001C080E0DF91CF911F910F913F
:10116000FF90EF90DF90CF90BF90AF909F908F90C7
:101170000895FF920F931F93CF93DF93EC01F62E08
:101180008AE061E00E9441128AE061E00E946112FF
:101190008BE061E00E9441128CE060E00E9441120D
:1011A0008DE061E00E94411283E58CBD80E09FEFFD
:1011B0009EBD0DB407FEFDCF8F5F8A30C9F760E09A
:1011C0000E94611280E090E02FEF2EBD0DB407FE6B
:1011D000FDCF3EB5019632E081309307B1F710E0C4
:1011E000CE0160E020E030E040E050E00E94CB071C
:1011F000082F813041F01A3021F481E08C830D8377
:101200001CC01F5FEDCFCE0168E02AEA31E040E06C
:1012100050E00E94CB07982F8130A1F480E02FEF9F
:101220002EBD0DB407FEFDCF9EB58F5F8430C1F794
:101230009A3A29F089E08C839D8380E062C082E045
:101240008B8707C082FF02C00B8703C082E08C83BC
:101250009D830E94B1118B01CE0167E320E030E055
:1012600040E050E00E94CB078B85823029F020E0DF
:1012700030E040E050E004C020E030E040E050E4E6
:10128000CE0169E20E94CB07882349F00E94B11188
:10129000601B710B615D7740F8F286E00EC08B85B4
:1012A000823011F5CE016AE320E030E040E050E00A
:1012B0000E94CB07882319F085E08C83BECF8FEF87
:1012C0008EBD0DB407FEFDCF8EB5807C803C11F441
:1012D00083E08B8780E09FEF9EBD0DB407FEFDCFBE
:1012E0002EB58F5F8330C1F78CB58C7F8CBDFF200E
:1012F00019F48DB581608DBD8AE061E00E946112B4
:1013000081E0DF91CF911F910F91FF9008951F927F
:101310000F920FB60F9211242F933F938F939F93A9
:10132000AF93BF93EF93FF93E0912606F0912706CA
:10133000309709F4CEC020912A0830912B08809173
:101340002808909129082817390708F44BC0809184
:101350003008813029F520912C0830912D083093E8
:101360002B0820932A0880912E0890912F089093A3
:101370002908809328082852364019F488E297E01B
:1013800002C088E296E090932D0880932C0882E0BA
:101390008093300880916F00846080936F0022C03A
:1013A000833059F480916F008D7F80936F00128697
:1013B00010922706109226068CC086819781A08500
:1013C000B1850097A105B10509F483C08385948593
:1013D000A585B6850196A11DB11D83879487A58734
:1013E000B68777C08581E0912A08F0912B0880317B
:1013F00049F48181805890813296F0932B08E093D4
:101400002A0806C08191F0932B08E0932A0890E007
:101410005A985C985B9A5B985B9A5B985C9A5B9A2B
:101420005B985B9A5B9887FF02C05C9A01C05C98EE
:101430005B9A5B9886FF02C05C9A01C05C985B9ADD
:101440005B9885FF02C05C9A01C05C985B9A5B98D0
:1014500084FF02C05C9A01C05C985B9A5B9883FF32
:1014600002C05C9A01C05C985B9A5B9882FF02C0E4
:101470005C9A01C05C985B9A5B9881FF02C05C9AA1
:1014800001C05C985B9A5B9880FF02C05C9A01C0C7
:101490005C985B9A5B9897FF02C05C9A01C05C986D
:1014A0005B9A5B98892F96FF02C05C9A01C05C989A
:1014B0005B9A5B9885FF02C05C9A01C05C985B9A5E
:1014C0005B9884FF02C05C9A01C05C985B9A5B9851
:1014D0005A9AFF91EF91BF91AF919F918F913F9158
:1014E0002F910F900FBE0F901F9018950895EFE663
:1014F000F0E080818D7F8083E0912606F0912706C1
:10150000128610922706109226060895AF92BF9277
:10151000CF92DF92EF92FF920F931F93DF93CF93BF
:10152000CDB7DEB728970FB6F894DEBF0FBECDBF9C
:101530008C016B01B42EA52EFC0186819781A085BC
:10154000B1850097A105B10579F57E010894E11CEC
:10155000F11CD8011F968D919C915097B70148E0DE
:1015600050E00E9481050897E1F4C70160E071E056
:1015700044E050E00E9413014D815E816F817885C7
:10158000009731F4F80146835783608771870CC058
:10159000D8011F968D919C9150970E94F104882349
:1015A000C1F66FEF7FEF3DC0F80167857089DB0101
:1015B00019968C9140E051E0481B51092B2D3A2D92
:1015C000C901FC014817590708F4FA01D801169619
:1015D0002D913D914D915C911997CF01A0E0B0E024
:1015E000281739074A075B0708F4F901CB01B60150
:1015F000AF010E948105BC011816190694F49C01E4
:10160000442737FD4095542FF80186819781A085A6
:10161000B185821B930BA40BB50B86839783A087A0
:10162000B187CB0128960FB6F894DEBF0FBECDBFB1
:10163000CF91DF911F910F91FF90EF90DF90CF90AE
:10164000BF90AF9008950F931F93CF93DF93EC015A
:10165000909327068093260608E216E0B80140E042
:1016600051E00E94860A181619060CF04EC010931D
:101670002B0800932A08800F911F909329088093CC
:10168000280808E217E0CE01B80140E051E00E94CE
:10169000860A97FD3AC010932D0800932C08800FFE
:1016A000911F90932F0880932E0881E0809330083B
:1016B0008A87529A539A549A5A9A559A5D981092D8
:1016C000800089E080938100688170E080E090E094
:1016D00029813A814B815C810E942D169B01AC01CE
:1016E00060E074E284EF90E00E945F16309389001E
:1016F0002093880081E090E090938B0080938A0093
:1017000080916F00826080936F00DF91CF911F9175
:101710000F9108951F920F920FB60F9211242F93DD
:101720003F934F935F936F937F938F939F93AF9369
:10173000BF93EF93FF9380916F008B7F80936F0037
:1017400080913008823021F5789460912C08709156
:101750002D08809126069091270640E051E00E94D6
:10176000860AF89420912C0830912D081816190635
:1017700044F4280F391F30932F0820932E0881E05E
:1017800005C030932F0820932E0883E08093300803
:10179000FF91EF91BF91AF919F918F917F916F9149
:1017A0005F914F913F912F910F900FBE0F901F901F
:1017B0001895CF92DF92EF92FF920F931F93DF93D2
:1017C000CF93CDB7DEB762970FB6F894DEBF0FBEEA
:1017D000CDBF7C016B01CB010E94D604C6018E01F6
:1017E0000F5F1F4FB8014CE050E00E9481050C973D
:1017F00009F08BC0C80165E071E044E050E00E9450
:101800001301009709F081C0CE0109966AE071E0EA
:1018100044E050E00E941301009709F076C085C0B3
:10182000C8016FE071E044E050E00E9413010097AE
:1018300009F06BC083C00231110561F4C601BE011D
:101840006F5F7F4FA8010E9481058017910709F003
:101850005CC002C01A82198289819A81019739F489
:101860000231110539F489899A89892B19F08DEA99
:1018700090E03AC06B81F7016083633018F08CE927
:1018800090E032C01F85F7011583113118F08EE703
:1018900090E02AC02D813E814F815885F701218338
:1018A00032834383548370E080E090E00E942D16E1
:1018B0006534FCEA7F07F0E08F07F0E09F0790F4C3
:1018C000212F30E040E050E00E942D1623E0969555
:1018D0008795779567952A95D1F765547C4A80401E
:1018E000904028F088E690E00E94B50C0EC0F70109
:1018F000D08AC786138614861586168612861682A7
:1019000017821086118681E001C080E062960FB6D2
:10191000F894DEBF0FBECDBFCF91DF911F910F9125
:10192000FF90EF90DF90CF900895C601B80148E096
:1019300050E00E948105089741F772CF0D811E810A
:101940000031110509F077CF79CFCF93DF93EC0108
:1019500005C088E399E00E94B7142196FE016491C6
:101960006623B9F7DF91CF9108950E94A50C88E313
:1019700099E00E94CF14089510923508109237080C
:1019800010923A0810923C0810924F0810925C088E
:1019900010926F0882E898E00E94760A0895CF932B
:1019A000DF93EC0180918C08882321F082E898E095
:1019B0000E94770A8FE698E06CE578E0AE010E941D
:1019C000F505882351F487ED90E00E94A50C88E38B
:1019D00099E0BE010E94C71411C082E898E06FE64A
:1019E00078E00E94D90B882329F487EC90E00E94CC
:1019F000B50C04C082E898E00E94230BDF91CF91E0
:101A00000895809135088823F9F08EEE90E00E94C9
:101A1000A50C4091350850E060E070E088E399E063
:101A200020E130E00E94C4158BEE90E00E94A50CEE
:101A30004091360850E060E070E088E399E020E1F2
:101A400030E00E94D915FFCF08950E94CF0C8091FD
:101A50008C088823E1F70E94010D08950F931F93CE
:101A60008C018FEF90E00E94A50CC8010E94A50C8C
:101A70000E94010DFFCFAF92BF92CF92DF92EF9203
:101A8000FF920F931F9381E00E942312909394087A
:101A90008093930862E370E080E090E00E94BF11C1
:101AA00060919308709194086C5E7E4F88E399E092
:101AB0000E94F61488E399E06AE072E00E94F6144E
:101AC0008091930890919408883C91058CF481E171
:101AD00061E00E94611288E399E061E671E00E9492
:101AE000F61481E090E09093AA088093A90808C0BA
:101AF00081E160E00E9461121092AA081092A90888
:101B000080E10E94AE12BC019093A2088093A108CC
:101B10006A587E4F88E399E00E94F61420919F084E
:101B20003091A0088091A1089091A2082817390748
:101B300009F409C28091A9089091AA08892B09F09B
:101B400002C28091A3089091A408892B09F0FBC1DF
:101B500081E090E09093A4088093A30880919D0871
:101B600090919E08019690939E0880939D0888E32B
:101B700099E06DE871E00E94F61488E399E06CEB5F
:101B800071E00E94C71440919D0850919E086627FD
:101B900057FD6095762F88E399E02AE030E00E94B7
:101BA000D91583E161E00E94611281E00E94231255
:101BB000909396088093950881E00E942312BC01BF
:101BC00069527E4F88E399E00E94F6148091A5083F
:101BD0009091A6088130910579F0823091051CF42E
:101BE000892B39F013C08230910549F0039771F4C5
:101BF00009C086E192E008C080E292E005C08AE276
:101C000092E002C084E392E00E94250D60ED77E04F
:101C100080E090E00E94BF1183E160E00E946112C9
:101C200082E161E00E9461128091A5089091A6086E
:101C30008130910579F0823091051CF4892B39F0BF
:101C400013C08230910549F0039771F409C08EE307
:101C500092E008C088E492E005C082E592E002C00C
:101C60008CE592E00E94250D68E873E180E090E049
:101C70000E94BF1182E160E00E94611281E00E9437
:101C80002312909394088093930881E00E9423127A
:101C9000BC016A597D4F88E399E00E94F614809157
:101CA0009508909196088D599F4F209193083091F7
:101CB000940882179307E4F186E061E00E946112C4
:101CC0008091A5089091A60881309105A9F08230F5
:101CD00091051CF4892B39F02BC082309105A9F0B5
:101CE000039731F51BC088E399E06BE872E00E942E
:101CF000F61486EA92E01AC088E399E063EB72E09A
:101D00000E94F6148CEC92E011C088E399E069ED32
:101D100072E00E94F61482EF92E008C088E399E036
:101D20006FEF72E00E94F61488E193E00E94250DA7
:101D3000409193085091940820919508309196080D
:101D4000C9018C599F4F841795070CF041C0295346
:101D50003F4F24173507E4F187E061E00E946112EC
:101D60008091A5089091A60881309105A9F0823054
:101D700091051CF4892B39F02BC082309105A9F014
:101D8000039731F51BC088E399E065E273E00E9498
:101D9000F61480E493E01AC088E399E069E473E004
:101DA0000E94F61482E693E011C088E399E06BE6A6
:101DB00073E00E94F61487E893E008C088E399E096
:101DC00060E973E00E94F61489EA93E00E94250D11
:101DD000409193085091940820919508309196086D
:101DE000C90188539F4F841795070CF041C0255DAA
:101DF0003E4F24173507E4F188E061E00E9461124C
:101E00008091A5089091A60881309105A9F08230B3
:101E100091051CF4892B39F02BC082309105A9F073
:101E2000039731F51BC088E399E062EB73E00E94F1
:101E3000F61489EC93E01AC088E399E065ED73E04D
:101E40000E94F6148AEE93E011C088E399E066EFF1
:101E500073E00E94F6148EE094E008C088E399E0F5
:101E60006AE174E00E94F6148FE294E00E94250D6E
:101E70008091950890919608845D9E4F20919308DB
:101E80003091940882179307E4F589E061E00E949D
:101E900061128091A5089091A60881309105A9F062
:101EA000823091051CF4892B39F02BC082309105CA
:101EB000A9F0039731F51BC088E399E06BE374E068
:101EC0000E94F61481E594E01AC088E399E06CE57D
:101ED00074E00E94F61480E794E011C088E399E072
:101EE0006BE774E00E94F61482E994E008C088E38E
:101EF00099E06DE974E00E94F61481EB94E00E9491
:101F0000250D68E873E180E090E00E94BF1186E053
:101F100060E00E94611287E060E00E94611288E048
:101F200060E00E94611289E060E00E94611280918D
:101F3000A1089091A2089093A00880939F08109206
:101F4000A4081092A30880E00E94231290939A089C
:101F5000809399082091970830919808BC01621BE2
:101F6000730B77FF03C0709561957F4F70939C084A
:101F700060939B0864547B4F88E399E00E94F614B9
:101F800080919B0890919C088C3491050CF49BC027
:101F90008091990890919A08909398088093970857
:101FA00064EF71E080E090E00E94BF1180E00E9449
:101FB000231200D000D0AA2797FDA095BA2F23E0C6
:101FC00030E040E050E0EDB7FEB721833283438339
:101FD0005483BC01CD0120E030E040E050E0EFEF61
:101FE000EE2EE3E0FE2E012D112DAA24BB24650167
:101FF0000E94E4159B01AC013093A8082093A70828
:102000000F900F900F900F906130710511F16230B9
:1020100071051CF4232B49F056C06230710561F143
:102020006330710509F04FC03AC08091A5089091C6
:10203000A608892B09F447C01092A6081092A5089B
:1020400088E399E06BED74E00E94F61482EF94E06F
:1020500038C08091A5089091A6080197A1F130930E
:10206000A6082093A50888E399E06CEF74E00E942D
:10207000F61481E195E025C08091A5089091A6080D
:10208000029709F13093A6082093A50888E399E008
:102090006BE175E00E94F61483E395E012C0809135
:1020A000A5089091A608039771F03093A608209395
:1020B000A50888E399E06DE375E00E94F61482E5D7
:1020C00095E00E94250D1F910F91FF90EF90DF90FA
:1020D000CF90BF90AF900895AF92BF92CF92DF9212
:1020E000EF92FF920F931F9388E399E040E855E247
:1020F00060E070E00E943A1381E398E060E00E94A3
:10210000B908882321F48AE391E00E942E0D8DE323
:1021100098E061E378E041E00E944201882369F49D
:102120008DE398E061E378E040E00E94420188237B
:1021300021F48CE291E00E942E0D8CE598E06DE395
:1021400078E00E94ED03882321F48AE191E00E9467
:102150002E0D8DE091E00E94B50C8CE598E060E0DA
:102160000E94390781E161E00E94411282E161E051
:102170000E94411283E161E00E94411286E061E029
:102180000E94411287E061E00E94411288E061E014
:102190000E94411289E061E00E94411280E160E00A
:1021A0000E94411280E10E94AE12BC019093A008EF
:1021B00080939F08645A7A4F88E399E00E94F6144E
:1021C00080E00E942312BC019093980880939708A6
:1021D0006D587A4F88E399E00E94F61400D000D041
:1021E0006091970870919808882777FD8095982FBF
:1021F00023E030E040E050E0EDB7FEB721833283CA
:102200004383548320E030E040E050E0E12CF4E0F0
:10221000FF2E012D112DAA24BB2465010E94E41577
:102220009B017093A8086093A7080F900F900F90E0
:102230000F9029573A4F88E399E0B9010E94F614AC
:102240008091A7089091A80881309105B1F0823063
:1022500091051CF4892B41F02CC082309105B1F01E
:102260008330910531F51BC01092A6081092A50885
:1022700088E399E06EE975E01AC09093A608809310
:10228000A50888E399E06EEB75E011C09093A6086D
:102290008093A50888E399E06CED75E008C0909301
:1022A000A6088093A50888E399E06DEF75E00E9489
:1022B000F6141F910F91FF90EF90DF90CF90BF9099
:1022C000AF9008950E94E9110E946C100E943B0D8E
:1022D000FDCF1F920F920FB60F9211242F933F93B1
:1022E0008F939F93AF93BF938091AF089091B00865
:1022F000A091B108B091B2083091B3080196A11D28
:10230000B11D232F2D5F2D3720F02D570196A11DD4
:10231000B11D2093B3088093AF089093B008A093A9
:10232000B108B093B2088091AB089091AC08A0912D
:10233000AD08B091AE080196A11DB11D8093AB0808
:102340009093AC08A093AD08B093AE08BF91AF9145
:102350009F918F913F912F910F900FBE0F901F90E3
:1023600018958FB7F8942091AF083091B00840913C
:10237000B1085091B2088FBFB901CA010895EF9218
:10238000FF920F931F937B018C018FB7F8944091BC
:10239000AF085091B0086091B1087091B2088FBF3A
:1023A0002FB7F8948091AF089091B008A091B10830
:1023B000B091B2082FBF841B950BA60BB70BE81684
:1023C000F9060A071B0760F71F910F91FF90EF9026
:1023D0000895789484B5826084BD84B5816084BD9D
:1023E00085B5826085BD85B5816085BDEEE6F0E08E
:1023F000808181608083E1E8F0E080818260808379
:10240000808181608083E0E8F0E08081816080836A
:10241000E1EBF0E0808184608083E0EBF0E080819C
:1024200081608083EAE7F0E080818460808380813E
:1024300082608083808181608083808180688083E6
:102440001092C10008958F7090911B069295990F7C
:10245000990F907C982B90937C0080917A008064F7
:1024600080937A0080917A0086FDFCCF20917800DD
:1024700040917900942F80E030E0282B392BC9015E
:102480000895282F30E0C90181589E4FFC01949196
:1024900025593E4FF9018491882391F0E82FF0E00F
:1024A000EE0FFF1FE35BFE4FA591B491662329F465
:1024B0008C91909589238C9308958C91892B8C9382
:1024C0000895482F50E0CA018D569E4FFC0124917B
:1024D000CA0181589E4FFC01949145595E4FFA0103
:1024E00034913323D1F1222331F1233021F480912F
:1024F00080008F7705C0243031F4809180008F7D7B
:102500008093800018C0213019F484B58F7704C0FF
:10251000223021F484B58F7D84BD0DC0263021F496
:102520008091B0008F7705C0273029F48091B000EA
:102530008F7D8093B000E32FF0E0EE0FFF1FE95A8C
:10254000FE4FA591B491662329F48C91909589232F
:102550008C9308958C91892B8C930895682F70E04B
:10256000CB018D569E4FFC012491CB0181589E4F8B
:10257000FC01449165597E4FFB019491992319F414
:1025800020E030E038C0222331F1233021F4809163
:1025900080008F7705C0243031F4809180008F7DDA
:1025A0008093800018C0213019F484B58F7704C05F
:1025B000223021F484B58F7D84BD0DC0263021F4F6
:1025C0008091B0008F7705C0273029F48091B0004A
:1025D0008F7D8093B000892F90E0880F991F8F59CD
:1025E0009E4FFC01A591B4918C9120E030E08423B2
:1025F00011F021E030E0C90108951F920F920FB64B
:102600000F9211242F933F934F935F936F937F9378
:102610008F939F93AF93BF93EF93FF934091C60027
:10262000E0913409F0913509CF01019660E870E03E
:102630000E944C169C018091360990913709281709
:10264000390739F0EC54F74F408330933509209324
:102650003409FF91EF91BF91AF919F918F917F913D
:102660006F915F914F913F912F910F900FBE0F90FF
:102670001F9018955F926F927F928F929F92AF9268
:10268000BF92CF92DF92EF92FF920F931F93CF935F
:10269000DF93EC013A014B01413482E458078FE0AB
:1026A000680780E078070CF07FC060E874E88EE18E
:1026B00090E0A40193010E948116215030404040D7
:1026C0005040CA01B90122E030E040E050E00E94F1
:1026D000811659016A01A601950120953095409512
:1026E000509594E0220F331F441F551F9A95D1F740
:1026F00060E074E284EF90E00E948116CA01B901A3
:102700002FEF30E040E050E00E942D16A40193012D
:102710000E948116C90181509F4F181619061CF49A
:10272000522E5A9403C055245394521A60E079E013
:102730008DE390E0A40193010E9481162150304066
:1027400040405040CA01B90122E030E040E050E092
:102750000E948116209530954095509583E0220F78
:10276000331F441F551F8A95D1F760E074E284EF50
:1027700090E00E948116CA01B9012FEF30E040E0DD
:1027800050E00E942D16A40193010E948116C901F8
:1027900081509F4F181619061CF4822F815002C0D9
:1027A00081E0821B851500F5E885F98581E090E0E0
:1027B0000A8802C0880F991F0A94E2F7808360E0BC
:1027C00079E08DE390E0A40193010E9481162150ED
:1027D000304040405040CA01B90122E030E040E0C2
:1027E00050E00E94811604C0E885F98510829501A9
:1027F000EC81FD813083EE81FF812083EA85FB85BA
:10280000208141E050E0CA010E8402C0880F991F68
:102810000A94E2F7282B2083EA85FB852081CA01F0
:102820000F8402C0880F991F0A94E2F7282B208397
:10283000EA85FB858081088802C0440F551F0A94F1
:10284000E2F7842B8083DF91CF911F910F91FF904E
:10285000EF90DF90CF90BF90AF909F908F907F9040
:102860006F905F900895FC01A085B18521898C91BE
:1028700090E0022E02C0959587950A94E2F780FFBA
:10288000F6CF0484F585E02D6083089580E296E01C
:10289000909339098093380984EB98E090933B0931
:1028A00080933A0985EC90E090933D0980933C0930
:1028B00084EC90E090933F0980933E0980EC90E097
:1028C000909341098093400981EC90E090934309F3
:1028D0008093420986EC90E09093450980934409E7
:1028E00084E08093460983E08093470987E08093E2
:1028F000480985E08093490981E080934A09089559
:102900000F931F93CF93DF938C01EB0109C02196A6
:10291000D801ED91FC910190F081E02DC80109955D
:1029200068816623A1F7DF91CF911F910F910895E0
:10293000EF92FF920F931F93CF93DF938C017B0154
:10294000EA010CC0D7016D917D01D801ED91FC9198
:102950000190F081E02DC80109952197209791F70A
:10296000DF91CF911F910F91FF90EF900895DC01BF
:10297000ED91FC910190F081E02D09950895DC0125
:10298000ED91FC910190F081E02D09950895DC0115
:10299000ED91FC910280F381E02D099508950F934C
:1029A0001F938C01DC01ED91FC910190F081E02DF1
:1029B0006DE00995D801ED91FC910190F081E02D39
:1029C000C8016AE009951F910F9108950F931F9315
:1029D0008C01DC01ED91FC910190F081E02D0995D5
:1029E000C8010E94CF141F910F9108950F931F9358
:1029F0008C010E94C714C8010E94CF141F910F912F
:102A000008952F923F924F925F926F927F928F9292
:102A10009F92AF92BF92CF92DF92EF92FF920F936D
:102A20001F93DF93CF93CDB7DEB7A0970FB6F8947F
:102A3000DEBF0FBECDBF1C016A017B0141155105F0
:102A40006105710549F4DC01ED91FC910190F08183
:102A5000E02D60E3099554C0882499245401422E46
:102A600055246624772401E010E00C0F1D1F080D8B
:102A7000191DC701B601A30192010E945F16F8015A
:102A800060830894811C911CA11CB11CC701B60174
:102A9000A30192010E945F16C901DA016C017D0158
:102AA000C114D104E104F104F1F681E0E82EF12C27
:102AB000EC0EFD1EE80CF91C3E010894611C711C13
:102AC000D501C4010197A109B1096C01C818D90841
:102AD00014C0F601EE0DFF1D60816A3010F4605DD8
:102AE00001C0695CD101ED91FC910190F081E02D74
:102AF000C10109950894E108F1086E147F0449F7B3
:102B0000A0960FB6F894DEBF0FBECDBFCF91DF9178
:102B10001F910F91FF90EF90DF90CF90BF90AF90FB
:102B20009F908F907F906F905F904F903F902F90ED
:102B300008952AE00E9401150895EF92FF920F93E5
:102B40001F93CF93DF93EC017A018B0177FF0FC0C6
:102B5000E881F9810190F081E02D6DE209951095F1
:102B60000095F094E094E11CF11C011D111DCE01B3
:102B7000B801A7012AE00E940115DF91CF911F91B2
:102B80000F91FF90EF900895DC012115310541F47C
:102B9000ED91FC910190F081E02D642F099508954D
:102BA0002A30310519F40E949D1508950E940115DF
:102BB00008950F931F938C010E94C415C8010E94B1
:102BC000CF141F910F9108952F923F924F925F92D1
:102BD0006F927F928F929F92AF92BF92CF92DF922D
:102BE000EF92FF920F931F93DF93CF93CDB7DEB792
:102BF0003B014C0119012A016D897E898F89988DCD
:102C00006A197B098C099D09621A730A840A950A5C
:102C1000A40193010E942D16E218F3080409150976
:102C2000A80197010E9481162A0D3B1D4C1D5D1DB8
:102C3000B901CA01CF91DF911F910F91FF90EF90E1
:102C4000DF90CF90BF90AF909F908F907F906F90CC
:102C50005F904F903F902F900895629FD001739F97
:102C6000F001829FE00DF11D649FE00DF11D929F28
:102C7000F00D839FF00D749FF00D659FF00D992767
:102C8000729FB00DE11DF91F639FB00DE11DF91F8B
:102C9000BD01CF011124089597FB092E07260AD004
:102CA00077FD04D049D006D000201AF470956195C4
:102CB0007F4F0895F6F7909581959F4F0895A1E273
:102CC0001A2EAA1BBB1BFD010DC0AA1FBB1FEE1FA6
:102CD000FF1FA217B307E407F50720F0A21BB30BF1
:102CE000E40BF50B661F771F881F991F1A9469F76D
:102CF00060957095809590959B01AC01BD01CF01C9
:102D0000089597FB092E05260ED057FD04D0D7DF76
:102D10000AD0001C38F450954095309521953F4FCE
:102D20004F4F5F4F0895F6F7909580957095619598
:102D30007F4F8F4F9F4F0895AA1BBB1B51E107C0C8
:102D4000AA1FBB1FA617B70710F0A61BB70B881F3B
:102D5000991F5A95A9F780959095BC01CD010895CA
:102D6000EE0FFF1F0590F491E02D0994F894FFCF2A
:102D700064617461005249464600574156450066F9
:102D80006D742000416C636F686F6C2053656E73C7
:102D90006F722056616C75652066726F6D2042659A
:102DA00067696E6E696E67206F66204C6F6F703A50
:102DB0002000626173656C696E65202B206261730F
:102DC000656C696E65446966666572656E743D2002
:102DD00000416C636F686F6C2053656E736F722077
:102DE00052656164790043757272656E7420537721
:102DF000697463682053746174653A20005377697D
:102E000074636820776173206368616E676564200E
:102E1000616E6420427265617468616C797A657272
:102E200020737461727465642E2E2E006E756D624F
:102E30006572206F6620627574746F6E2070757392
:102E40006865733A202000616C636F686F6C207353
:102E5000656E736F722076616C7565206265666F52
:102E6000726520626C6F77696E672C20616C636F8E
:102E7000686F6C2064796E616D696320626173654F
:102E8000696E653A200077616974302E776176004B
:102E900077616974312E7761760077616974322EBB
:102EA0007761760077616974332E77617600626CA2
:102EB0006F77302E77617600626C6F77312E776195
:102EC0007600626C6F77322E77617600626C6F7776
:102ED000332E77617600616C636F686F6C20736569
:102EE0006E736F722076616C7565206166746572B1
:102EF00020626C6F77696E673A20007072696E634A
:102F0000657373206D6F64652030206E6F20616C77
:102F1000636F686F6C006E6F7468696E67302E77D0
:102F2000617600706972617465206D6F646520312F
:102F3000206E6F20616C636F686F6C006E6F7468D9
:102F4000696E67312E7761760070697261746520F1
:102F50006D6F64652032206E6F20616C636F686FE7
:102F60006C006E6F7468696E67322E7761760069E7
:102F70006E73756C74206D6F64652033206E6F20E6
:102F8000616C636F686F6C006E6F7468696E673335
:102F90002E776176007072696E63657373206D6F52
:102FA0006465203020666577206472696E6B7300FB
:102FB000666577302E77617600706972617465207E
:102FC0006D6F6465203120666577206472696E6B71
:102FD0007300666577312E7761760068616C6C6F7F
:102FE0007765656E206D6F64652032206665772099
:102FF0006472696E6B7300666577322E7761760056
:10300000696E73756C74206D6F646520332066651E
:1030100077206472696E6B7300666577332E776113
:1030200076007072696E63657373206D6F646520DE
:10303000302062757A7A65640062757A7A656430E8
:103040002E77617600706972617465206D6F6465BA
:1030500020312062757A7A65640062757A7A6564D7
:10306000312E7761760068616C6C6F7765656E20D4
:103070006D6F646520322062757A7A6564006275CE
:103080007A7A6564322E77617600696E73756C7436
:10309000206D6F646520332062757A7A6564006202
:1030A000757A7A6564332E776176007072696E6323
:1030B000657373206D6F64652030206472756E6B6C
:1030C000006472756E6B302E776176007069726184
:1030D0007465206D6F64652031206472756E6B00BD
:1030E0006472756E6B312E7761760068616C6C6FFF
:1030F0007765656E206D6F64652032206472756E31
:103100006B006472756E6B322E77617600696E7338
:10311000756C74206D6F64652033206472756E6BFE
:10312000006472756E6B332E776176006162736F27
:103130006C75746520706F742076616C75652063A2
:1031400068616E67652069733A20007072696E630A
:10315000657373206D6F6465206368616E676520B9
:1031600030006D6F6465302E776176007069726132
:103170007465206D6F6465206368616E67652031DA
:10318000006D6F6465312E7761760068616C6C6FDD
:103190007765656E206D6F6465206368616E676535
:1031A0002032006D6F6465322E77617600696E7330
:1031B000756C74206D6F6465206368616E6765204F
:1031C00033006D6F6465332E77617600696E6974C4
:1031D00069616C207377697463682076616C7565CA
:1031E0003D2000696E697469616C20706F7420768F
:1031F000616C75653D2000696E697469616C207051
:103200006F742072616E67652069733A2000696E81
:10321000697469616C206D6F6465207365742074D6
:103220006F20303A207072696E6365737300696E47
:10323000697469616C206D6F6465207365742074B6
:103240006F20313A2070697261746500696E69742B
:1032500069616C206D6F64652073657420746F20E4
:10326000323A2068616C6C6F7765656E00696E69D3
:103270007469616C206D6F64652073657420746F70
:1032800020333A20696E73756C74000100000000F1
:06329000331480149814B1
:00000001FF
